:020000040800F2
:100000000050002021020008270200082B020008EF
:100010009D020008A1020008E9020008000000009B
:100020000000000000000000000000003103000894
:100030003503000800000000390300083D030008F4
:100040004D0300084D0300084D0300084D03000850
:100050004D0300084D030008C10E00084D030008C1
:100060004D0300084D0300084D0300084D03000830
:100070004D0300084D0300084D0300084D03000820
:100080004D0300084D0300084D0300084D03000810
:100090004D0300084D0300084D0300084D03000800
:1000A0004D0300084D0300084D0300084D030008F0
:1000B0004D0300084D0300084D0300084D030008E0
:1000C0004D0300084D0300084D0300084D030008D0
:1000D0004D0300084D0300084D0300084D030008C0
:1000E000D50E00084D0300084D0300080000000075
:1000F0000000000000000000000000000000000000
:1001000000000000000000005FF808F100B583B0B7
:1001100000F014FC304B314A1360314A1360314B0C
:10012000314A03E052F8041B43F8041B2F498B4269
:10013000F8D32A4B1A682E4B9A4200D0FEE7284B80
:100140001A682C4B9A42F9D1234B2B4A13602B4A45
:1001500013602B4B02E0002243F8042B294A934200
:10016000F9D3254B1B6813B9244B1B6803B1FEE779
:1001700000F0F0FB694601A800F048FB224C234B3D
:10018000E41AA410002504E0204B53F825309847CA
:100190000135AC42F8DC1E4C1E4BE41AA4100025BD
:1001A00004E01C4B53F8253098470135AC42F8DC8D
:1001B0000099019800F085FD0546174C174BE41A8D
:1001C000A41004E0013C154B53F824309847002C50
:1001D000F8DC284600F0ECFABABADECA00000020CB
:1001E0008400002000000020E02200088800002099
:1001F0007856341232547698880000202C01002062
:1002000088000020300100207803000878030008EF
:1002100078030008780300087803000878030008D2
:1002200008B5FFF773FF00BEFEE71EF0040F0CBF1A
:10023000EFF30880EFF309807146414A10472DE93A
:10024000F04182B004460D46124B5F6BD3F8388004
:100250009E6A1B6B13F0020F03D00E4BDB6A002B60
:100260000BDB0D4800F00CFB009543463A46314647
:10027000204600F073FB00BEFEE74BF6AB6100F0DA
:10028000E7FB0028EDD0034B4FF00042DA6202B0EA
:10029000BDE8F08100ED00E0EC21000800BEFEE7C3
:1002A0001EF0040F0CBFEFF30880EFF309807146D6
:1002B000244A10472DE9F04182B004460D46084B10
:1002C0005F6BD3F838809E6A064800F0D9FA009533
:1002D00043463A463146204600F040FB00BEFEE76A
:1002E00000ED00E0FC2100081EF0040F0CBFEFF34E
:1002F0000880EFF309807146134A10472DE9F04159
:1003000082B004460D46084B5F6BD3F838809E6A76
:10031000064800F0B5FA009543463A463146204675
:1003200000F01CFB00BEFEE700ED00E00822000824
:1003300000BEFEE700BEFEE700BEFEE7704700001D
:100340003F020008B5020008FD02000800BEFEE7FB
:10035000E02200080000002088000020E0220008C1
:100360000000000000000000880000203001002094
:08037000000000000000000085
:1003780010B50446B0F5E06F0BD0B0F5C06F08D0EB
:10038800B0F5A06F05D0B0F5806F02D0B0F5407F12
:1003980006D144F0BF6444F40034044BDC6010BD63
:1003A8006321034800F05EFAF3E700BF00ED00E0C8
:1003B8000420000810B50446C378012B26D86378BA
:1003C8000F2B28D8A3780F2B2AD8E3786BB31C4BB4
:1003D800DA68D243C2F30222C2F104000F2323FADF
:1003E80002F261788140A37813400B431B01227805
:1003F800DBB214490A4482F80033237803F01F0063
:100408005B090122824041F8232010BD75210E4866
:1004180000F028FAD3E776210B4800F023FAD1E759
:100428007721094800F01EFACFE7237803F01F016F
:100438005B0901228A402033024941F82320E4E77E
:1004480000ED00E000E100E004200008F8B50546F2
:100458000C46494B98421BD003F58063984217D04D
:1004680003F58063984213D003F5806398420FD058
:1004780003F5806398420BD003F58063984207D058
:1004880003F58063984203D0B2213C4800F0EAF9B2
:10049800E3786BB1042B0BD0282B09D0482B07D05D
:1004A800142B05D0102B03D01C2B01D0182B14D1E2
:1004B8002388BBB1E37803F00F06304613F0100F22
:1004C80006D0A378013BDBB2022B10D8A0783043CA
:1004D80023785BB32E68002310E0B321274800F08F
:1004E800C1F9E5E7B421254800F0BCF9E2E7BB21F2
:1004F800224800F0B7F9E9E76A610133072B14D8FD
:1005080001229A40218832EA0101F6D199000F2789
:100518008F4026EA070600FA01F10E43E178282900
:10052800EAD04829E9D12A61E7E72E602388FF2B22
:1005380020D96E68002302E06A6115E00133072BB9
:1005480017D803F1080101228A40218832EA010103
:10055800F4D199000F278F4026EA070600FA01F127
:100568000E43E1782829E7D0E1784829E6D12A61C5
:10057800E4E76E60F8BD00BF000801402C200008C9
:1005880038B504460D462A4B98421CD003F58063C3
:10059800984218D003F58063984214D003F580631D
:1005A800984210D003F5806398420CD003F580631D
:1005B800984208D003F58063984204D04FF4A271A2
:1005C8001C4800F04FF96B1E9BB2012B23D9042D58
:1005D80021D0082D1FD0102D1DD0202D1BD0402D2F
:1005E80019D0802D17D0B5F5807F14D0B5F5007FD0
:1005F80011D0B5F5806F0ED0B5F5006F0BD0B5F5FD
:10060800805F08D0B5F5005F05D0B5F5804F02D002
:10061800B5F5004F04D1E3681D4207D0012038BD6D
:1006280040F24511034800F01DF9F4E70020F6E711
:10063800000801402C20000870B504460D461646F7
:100648002D4B98421CD003F58063984218D003F5CF
:100658008063984214D003F58063984210D003F564
:10066800806398420CD003F58063984208D003F564
:100678008063984204D040F28D11204800F0F2F8CF
:100688006B1E9BB2012B23D9042D21D0082D1FD01E
:10069800102D1DD0202D1BD0402D19D0802D17D006
:1006A800B5F5807F14D0B5F5007F11D0B5F5806F12
:1006B8000ED0B5F5006F0BD0B5F5805F08D0B5F555
:1006C800005F05D0B5F5804F02D0B5F5004F04D1D5
:1006D800012E08D86EB1256170BD4FF4C771074867
:1006E80000F0C0F8F4E740F28F11044800F0BAF8BF
:1006F800F0E76561F0E700BF000801402C20000822
:1007080070B505460C46062817D80F2C1BD804F0E0
:10071800030080000F2202FA00F6A1080D4B0231F7
:1007280053F8212022EA060243F8212053F8212019
:100738008540154343F8215070BD40F265210648B5
:1007480000F090F8E1E740F26621034800F08AF8EB
:10075800DDE700BF000001402C20000838B5044642
:100768000D460E4B034003B920B940F24A410C48EC
:1007780000F078F8012D05D855B10A4B9869044363
:100788009C6138BD40F24B41054800F06BF8F3E737
:10079800044B986920EA04049C61F2E70200C0FF58
:1007A8006020000800100240FEE7000008B503487A
:1007B80000F07CF80120FFF7F7FF00BF9020000849
:1007C80008B503460C4A12685AB10B4A106803333D
:1007D80023F003030344094A934206D8064A1360E8
:1007E80008BD054A06491160EFE700F09FFB0C239E
:1007F80003604FF0FF30F3E78C000020004C00202E
:100808003001002001230360014B0B60704700BFDB
:100818000400002008B500F089FB582303604FF05E
:10082800FF3008BD08B500F081FB582303604FF086
:10083800FF3008BD08B500F079FB5823036000209D
:1008480008BD08B500F072FB582303604FF0FF3075
:1008580008BD08B500F06AFB582303604FF0FF306D
:1008680008BD000008B50A460146024800F004F831
:10087800FFF79CFFA42000080FB400B583B004ABB9
:1008880053F8042B01938021074800F0FFFB002850
:1008980004DC03B05DF804EB04B07047014602487D
:1008A80000F044F8F5E700BF9400002010B50446B6
:1008B80000F0B8FB0146204600F038F80121024854
:1008C80000F034F810BD00BF682100082DE9F0439E
:1008D80085B004460F46435633BB042528462146B7
:1008E800ABBE0446384605B0BDE8F08314F9010BE9
:1008F80004AA1A4402F8100C0133AB42F6D304AA36
:100908001344002203F8102C4FF00408E94640462F
:100918004946ABBE8046761B002EE3D03546102EE6
:1009280028BF10250023E8E70E46F5E708B5FFF7CE
:10093800CDFF08BD08B500F0FDF8024A024B9A60E9
:1009480008BD00BF0000000800ED00E008B500F099
:1009580019F908BDF8B504460D4617461E4627483E
:10096800FFF78AFF21682648FFF786FF6168254858
:10097800FFF782FFA1682448FFF77EFFE16823485C
:10098800FFF77AFF21692248FFF776FF616921485E
:10099800FFF772FFA1692048FFF76EFFE1691F4862
:1009A800FFF76AFF1E48FFF767FF29461D48FFF754
:1009B80063FF1D4CE16A1D48FFF75EFF216B1C4871
:1009C800FFF75AFFE16B1B48FFF756FF15F0800F42
:1009D8000AD115F4004F0CD11748FFF74DFF0699BF
:1009E8001648FFF749FFF8BD39461548FFF744FF99
:1009F800EFE731461348FFF73FFFEDE7D020000847
:100A0800E0200008F020000800210008102100085C
:100A1800202100083021000840210008502100084A
:100A2800602100086C21000800ED00E07C2100082E
:100A38008C2100089C210008CC210008D421000842
:100A4800AC210008BC21000883691A888A4201D0B9
:100A5800002070470268033A012A01D90020704734
:100A6800023383610120704782B000230193009311
:100A78002C4A136843F4803313602A4B1B6803F431
:100A880000330093019B01330193009B1BB9019B29
:100A9800B3F5A06FF1D1234B1B6813F4003F06D0C8
:100AA80001230093009B012B04D002B07047002360
:100AB8000093F7E71C4B1A6842F010021A601A6894
:100AC80022F003021A601A6842F002021A60A3F5C3
:100AD80080535A685A605A685A605A6842F4806269
:100AE8005A605A6822F47C125A605A6842F4E81232
:100AF8005A601A6842F080721A600A4B1B6813F039
:100B0800007FFAD0074B5A6822F003025A605A68ED
:100B180042F002025A60034B5B6803F00C03082B97
:100B2800F9D1C2E7001002400020024008B5FFF7E3
:100B38009BFF08BD08B5104B1A6842F001021A6005
:100B480059680E4A0A405A601A6822F0847222F4E0
:100B580080321A601A6822F480221A605A6822F4D5
:100B6800FE025A604FF41F029A60FFF7DFFF044B42
:100B78004FF000629A6008BD001002400000FFF8C4
:100B880000ED00E01F4B5B6803F00C03042B15D04D
:100B9800082B17D01BB11C4B1C4A1A6002E01A4BD9
:100BA8001A4A1A60174B5B68C3F30313184AD35CDD
:100BB800DAB215490B68D3400B607047124B134AE1
:100BC8001A60EFE70F4A53685268C3F3834302334E
:100BD80012F4803F05D10F4A02FB03F30A4A13605F
:100BE800E0E7084A526812F4003F05D0094A02FBC0
:100BF80003F3054A1360D5E7044A02FB03F3024AEC
:100C08001360CFE7001002401C00002000127A0099
:100C18000C00002000093D0008B5431E012B04D834
:100C280008461146FFF782FE08BD00F07FF95823F9
:100C380003604FF0FF30F7E700B583B001210846A5
:100C4800FFF78CFD00210120FFF75AFD0C21012040
:100C5800FFF756FD0F210120FFF752FD49F201036E
:100C6800009301238DF8063000238DF80430082303
:100C78008DF80530684600F053F803B05DF804FBC2
:100C880000B583B04FF44070FFF772FB06238DF870
:100C9800043001238DF807308DF8053000238DF8D6
:100CA800063001A8FFF786FB28238DF8043001A839
:100CB800FFF780FB03B05DF804FB08B5FFF7E0FF22
:100CC800FFF7BAFF00F002F8FEE7000010B582B0A7
:100CD80001210420FFF742FD01210820FFF73EFD16
:100CE80010238DF807300323ADF8043002248DF863
:100CF800064001A90848FFF7A9FB28238DF803300F
:100D080049F20103ADF800308DF802406946034806
:100D1800FFF79CFB02B010BD00080140000C014029
:100D280010B5044603790BB1042B3FD16379082B26
:100D380003D00C2B01D0102B3DD12268130D1B05BD
:100D480003B91AB96C212B48FFF78CFDA379012B45
:100D580036D8A379002B42D0274B1A68216822EA9B
:100D680001021A605A68216822EA01025A6022794F
:100D780002F1804202F58232116820680143116055
:100D88009A68216822EA01029A60DA68216822EAF0
:100D98000102DA606379102B17D003F1804303F561
:100DA80082331A6821680A431A6022E06A211148CE
:100DB800FFF758FDBAE76B210E48FFF753FDBCE774
:100DC8006D210C48FFF74EFDC3E70B4B9A6821686D
:100DD8000A439A60DA6821680A43DA6009E02379ED
:100DE80003F1804303F582331A68216822EA01027D
:100DF8001A6010BD182200080004014010B504460E
:100E0800431E012B2FD904282DD008282BD01028B9
:100E180029D0202827D0402825D0802823D0B0F5F5
:100E2800807F20D0B0F5007F1DD0B0F5806F1AD03C
:100E3800B0F5006F17D0B0F5805F14D0B0F5005F43
:100E480011D0B0F5804F0ED0B0F5004F0BD0B0F5F3
:100E5800803F08D0B0F5003F05D0B0F5802F02D014
:100E6800B0F5002F08D1094A13682340526922427D
:100E780007D043B9002005E0E5210548FFF7F2FC5B
:100E8800F1E7002010BD0120FCE700BF000401408D
:100E98001822000810B50446030D1B0503B918B93C
:100EA800FC210348FFF7DEFC024B5C6110BD00BF6C
:100EB800182200080004014008B5034800F0AAF809
:100EC8000120FFF7E7FF08BD3022000810B54FF4F6
:100ED8008050FFF793FF80B1134C01212046FFF7A4
:100EE8004FFB80F00102D2B201212046FFF7A4FB9C
:100EF8004FF48050FFF7CEFF10BD4FF40040FFF7CE
:100F08007DFF0028F8D0084C02212046FFF738FB67
:100F180080F00102D2B202212046FFF78DFB4FF488
:100F28000040FFF7B7FFE7E700080140014B1868EA
:100F3800704700BF2000002070B50E46054618B166
:100F480083690BB900F08AFAAB69AC6813B9284613
:100F580000F084FA2C4B9C4220D16C68636EDB074E
:100F680005D4A389980502D4A06D00F015FBA389C8
:100F780019071DD52369DBB1013EA36816F8011FC7
:100F8800013BA36039BB002B38DA22460A212846E8
:100F980000F08AF8013011D00A2511E01B4B9C4261
:100FA80001D1AC68DAE71A4B9C4208BFEC68D5E778
:100FB8002146284600F0CAF80028DDD04FF0FF355A
:100FC800636EDA0705D4A3899B0502D4A06D00F0EF
:100FD800E4FA284670BD002B04DAA2699A4206DCBE
:100FE8000A2904D023685A1C22601970C5E72246D2
:100FF800284600F059F80130BFD1DFE70A252368F9
:101008005A1C22601D70DBE76C2200088C22000845
:101018004C220008024B01461868FFF78DBF00BF3D
:1010280020000020034613F8012B002AFBD1181AD0
:101038000138704730B5141E05469BB0184605DACE
:101048008B234FF0FF302B601BB030BD4FF4027381
:10105800ADF80C300CBF234604F1FF33029305931F
:101068004FF6FF73024600910491ADF80E306946C1
:101078001E9B284600F000FC431CBCBF8B232B6042
:10108800002CE1D00022009B1A70DDE707B5009321
:1010980013460A46014603480068FFF7CBFF03B032
:1010A8005DF804FB20000020F8B50E4614460546FE
:1010B80018B183690BB900F0D1F9214B9C422BD1AF
:1010C8006C68A369A360A3891A072FD523696BB33A
:1010D80023692068F6B2C01A63693746834204DC84
:1010E8002146284600F026F930BBA3680130013BB1
:1010F800A36023685A1C22601E706369834204D06F
:10110800A389DB0706D50A2E04D12146284600F01C
:1011180011F988B93846F8BD0A4B9C4201D1AC6830
:10112800CFE7094B9C4208BFEC68CAE7214628462E
:1011380000F00CF80028CBD04FF0FF37EAE700BFEB
:101148006C2200088C2200084C220008324B70B533
:101158001D6806460C4625B1AB6913B9284600F050
:101168007DF92E4B9C420FD16C68A389B4F90C20F1
:1011780019072CD4DD0611D40923336042F040034B
:101188004FF0FF30A3813EE0254B9C4201D1AC6873
:10119800EBE7244B9C4208BFEC68E6E7580712D5FA
:1011A800616B41B104F14403994202D0304600F02A
:1011B80061FA00236363A38923F02403A381002336
:1011C800636023692360A38943F00803A38123692B
:1011D8004BB9A38903F42073B3F5007F03D02146EC
:1011E800304600F0FFF9A089B4F90C2010F0010393
:1011F8000AD00023A36063695B42A361236943B9F2
:1012080010F08000BAD170BD810758BF6369A36030
:10121800F4E70020F7E700BF200000206C22000858
:101228008C2200084C2200088A892DE9F0410546E5
:1012380010070C4658D44B68002B05DC0B6C002BB0
:1012480002DC0020BDE8F081E66A002EF9D0002318
:1012580012F480522F682B6032D0606DA3895A0730
:1012680005D56368C01A636B0BB1236CC01A0023E1
:101278000246E66A2846216AB047431CA38906D17C
:1012880029681D292CD82A4ACA40D60728D5002201
:1012980062602269D904226004D5421C01D12B68FE
:1012A80003B96065616B2F600029CAD004F144035B
:1012B800994202D0284600F0DDF900206063C1E7BA
:1012C800216A01232846B047411CC7D12B68002B4F
:1012D800C4D01D2B01D0162B01D12F60B1E7A389F3
:1012E80043F04003A381ADE70F69002FA9D093070E
:1012F80018BF00230E6808BF4B69A6EB07080F60EC
:101308008B60B8F1000F9CDD43463A462846216AB7
:10131800A66AB047002806DCA3894FF0FF3043F0E7
:101328004003A3818EE70744A8EB0008E9E700BF64
:101338000100402038B50B6905460C4613B9002555
:10134800284638BD18B183690BB900F087F8144BEB
:101358009C421BD16C68B4F90C30002BEFD0626E44
:10136800D00704D4990502D4A06D00F015F92846D9
:101378002146FFF759FF636E0546DA07E0D4A389D3
:101388009B05DDD4A06D00F008F9D9E7054B9C4218
:1013980001D1AC68DFE7044B9C4208BFEC68DAE790
:1013A8006C2200088C2200084C220008002310B58B
:1013B8000446C0E90033C0E9043383608181436691
:1013C800C2818361194608225C3000F04BF9054B55
:1013D80024626362044BA362044BE362044B2363FD
:1013E80010BD00BFCD1D0008EF1D0008271E000816
:1013F8004B1E0008014900F0AFB800BF3D130008BC
:1014080070B568254A1E55430E4605F1740100F073
:101418007DF9044640B10021C0E900160C30A060F7
:1014280005F1680200F01EF9204670BD014800F081
:10143800B3B800BF28010020014800F0AEB800BFD3
:1014480028010020014800F0A7B800BF23010020B0
:10145800014800F0A2B800BF2301002010B50446DF
:10146800FFF7F0FFA3691BB1BDE81040FFF7F0BF1D
:10147800C4E912332365134B134A1B68A262A342C3
:1014880008BF0123204608BFA36100F01FF8606071
:10149800204600F01BF8A060204600F017F8002254
:1014A8000421E0606068FFF781FF01220921A0683C
:1014B800FFF77CFF02221221E068FFF777FF012384
:1014C800A361D1E748220008FD130008F8B50746D4
:1014D800FFF7ACFF1E4B1E68B36913B93046FFF720
:1014E800BDFF4836D6E90134013B03D533680BB359
:1014F8003668F7E7B4F90C50D5B9164B04F1580023
:10150800E360656600F047F8FFF796FF0822294672
:10151800C4E90155C4E904552560A56104F15C00DE
:1015280000F0A0F8C4E90D55C4E912552046F8BDED
:101538006834D9E704213846FFF762FF0446306073
:101548000028D5D1FFF778FF0C233B60EEE700BFFA
:10155800482200080100FFFF2DE9F84306468846A7
:10156800002700F14804D4E90195B9F1010905D52E
:101578002468002CF7D13846BDE8F883AB89012BE5
:1015880007D9B5F90E30013303D029463046C04794
:1015980007436835E9E770477047704770B50E46EE
:1015A800B1F90E10144600291D4696B007DA00233B
:1015B8002B60B3891A0610D44FF480630EE06A4694
:1015C80000F066FC0028F2DB019A02F47042A2F5F2
:1015D80000535A425A412A60EEE740230020236014
:1015E80016B070BD8B8973B59D0706460C4607D5A6
:1015F80004F14703236023610123636102B070BDD6
:101608006A4601ABFFF7CAFF00990546304600F06D
:101618007DF848B9B4F90C309A05EFD423F00303E8
:1016280043F00203A381E3E70D4BB362A389206073
:1016380043F08003A381009B20616361019B5BB140
:101648003046B4F90E1000F035FC28B1A38923F018
:10165800030343F00103A381A0890543A581CDE7D6
:10166800FD13000803460244934200D1704703F873
:10167800011BF9E738B50546002943D051F8043C69
:101688000C1F002BB8BFE41800F06CFC1E4A13684E
:10169800104633B9636014602846BDE8384000F04E
:1016A80067BCA3420AD921686218934201BF1A682D
:1016B8005B685218226063600460EDE71A465B6855
:1016C8000BB1A342FAD911685018A0420BD1206877
:1016D8000144501883421160DED118685B680144E8
:1016E80011605360D8E702D90C232B60D4E7206837
:1016F80021188B4201BF19685B6809182160636073
:101708005460C9E738BD00BF14010020F8B5CD1CEE
:1017180025F0030508350C2D38BF0C25002D06468D
:1017280001DBA94203D90C2333600020F8BD00F087
:1017380019FC21490A6814469CB9204F3B6823B913
:101748002146304600F02EFB38602946304600F02E
:1017580029FB431C23D10C233046336000F008FCDE
:10176800E3E723685B1B17D40B2B03D923601C44C6
:10177800256004E06368A2420CBF0B6053603046EA
:1017880000F0F6FB04F10B00231D20F00700C21A3D
:10179800CCD01B1AA350C9E722466468CCE7C41C06
:1017A80024F00304A042E3D0211A304600F0FAFAEC
:1017B8000130DDD1CFE700BF14010020180100205F
:1017C8002DE9F0478E6882469E420C4690461F4699
:1017D80038D88A8912F4906F32D0256809690133A4
:1017E800A5EB010965694B4405EB450505EBD57586
:1017F8006D109D4238BF1D46530531D52946FFF768
:1018080085FF064650B90C234FF0FF30CAF8003068
:10181800A38943F04003A381BDE8F0874A462169C4
:1018280000F078FBA38923F4906343F08003A3813D
:1018380026614E4426603E466561A5EB0905A56014
:10184800BE4200D93E4632464146206800F070FB51
:10185800A36822689B1B32440020A3602260DBE758
:101868002A4600F08BFB06460028E1D15046216944
:10187800FFF700FFC7E700002DE9F04F98468B8976
:1018880007461B060D4614469DB00ED50B6963B975
:101898004021FFF73BFF2860286120B90C233B60FB
:1018A8004FF0FF30D1E040236B61002309932023E0
:1018B8008DF8293030234FF00109CDF80C80DFF87E
:1018C800A4818DF82A3023469A4613F8012B0AB1D1
:1018D800252AF9D1BAEB040B0BD05B4622462946E0
:1018E8003846FFF76DFF013000F0AA80099A5A4484
:1018F80009929AF80030002B00F0A28000234FF0E4
:10190800FF32CDE905230AF1010A049307938DF804
:1019180053301A935446052214F8011B514800F01D
:10192800EBFA049AD8B9D00644BF20238DF8533077
:10193800110744BF2B238DF853309AF800302A2B17
:1019480015D0544600204FF00A0C079A214611F88A
:10195800013B303B092B4ED9B0B1079214E0A0EB04
:10196800080309FA03F31343A2460493D2E7039B3F
:10197800191D1B680391002BBBBF5B4242F002029A
:1019880007930793B8BF049223782E2B0CD1637862
:101998002A2B35D1039B02341A1D1B680392002B96
:1019A800B8BF4FF0FF330593DFF8C8A003225046B5
:1019B800217800F0A1FA40B14023A0EB0A0003FA15
:1019C80000F0049B01340343049314F8011B06221E
:1019D80025488DF8281000F08FFA002838D0234BBE
:1019E8001BBB039B073323F0070308330393099BAF
:1019F8003344099367E70C4601200CFB0232A5E744
:101A080000234FF00A0C194601340593204610F8BC
:101A1800012B303A092A03D9002BC5D00591C3E719
:101A2800044601230CFB0121F0E703AB00932A468F
:101A380038460F4B04A9AFF30080421C0646D6D1A6
:101A4800AB895B063FF52CAF09981DB0BDE8F08F58
:101A580003AB00932A463846054B04A900F07CF8EE
:101A6800EBE700BFAC220008B62200080000000027
:101A7800C9170008B22200082DE9F0471646994612
:101A88008A680B6907469342B8BF1346336091F8DA
:101A980043200C46DDF820800AB101333360236807
:101AA800990642BF336802333360256815F006058E
:101AB80006D104F1190AE36832689B1AAB4228DCA4
:101AC80094F84320131E226818BF012392062DD4D0
:101AD8004946384604F14302C047013020D0236804
:101AE800E56803F00603042B18BF002532684FF0A1
:101AF8000006A36808BFAD1A226908BF25EAE57584
:101B08009342C4BF9B1AED181A34B5421AD100206B
:101B180008E00123524649463846C047013003D100
:101B28004FF0FF30BDE8F0870135C4E73020E118F9
:101B380081F843005A1C94F845102244023382F875
:101B48004310C5E70123224649463846C0470130BD
:101B5800E6D00136D9E700002DE9FF470C46277E7D
:101B68009146782F80469A460C9904F1430207D88B
:101B7800622F0AD8002F00F0D980582F00F0A480D7
:101B880004F1420684F842703AE0A7F16303152B8A
:101B9800F6D801A050F823F0F91B00080D1C000826
:101BA800891B0008891B0008891B0008891B00087D
:101BB8000D1C0008891B0008891B0008891B0008E8
:101BC800891B00081B1D00083D1C0008FD1C00089F
:101BD800891B0008891B00083D1D0008891B000897
:101BE8003D1C0008891B0008891B0008051D00080A
:101BF8000B6804F142061A1D1B680A6084F842301B
:101C08000123A4E0256808682E0600F104030AD51C
:101C180005680B60002D03DA2D236D4284F84330EC
:101C28000A235E4819E015F0400F05680B6018BFDD
:101C38002DB2EFE70B682568181D0860280601D546
:101C48001D6802E06906FBD51D886F2F0CBF0823AD
:101C58000A235248002184F843106668002EA8BF62
:101C68002168A660A4BF21F0040121600DB9002EEF
:101C78004DD01646B5FBF3F103FB1157C75D06F8C7
:101C8800017D2F46BB420D46F4D9082B0BD12368A2
:101C9800DF0708D5236961689942DEBF302306F85B
:101CA800013C06F1FF36921B22614B462146404615
:101CB800CDF800A003AAFFF7DFFE01304CD14FF0AA
:101CC800FF3004B0BDE8F087344884F845700E68EA
:101CD800236856F8045B1F060E6014D5D90744BF65
:101CE80043F0200323601DB9236823F020032360F9
:101CF8001023AFE7236843F02003236078232848A4
:101D080084F84530E3E75E0648BFADB2E6E716461D
:101D1800BBE70B6826681D1D60690D6035061B68EA
:101D280001D5186002E07106FBD51880002316461D
:101D38002361BAE70B681A1D0A601E680021304645
:101D4800626800F0D9F808B1801B6060636823619D
:101D5800002384F84330A8E73246494640462369C1
:101D6800D0470130ABD023689B0713D4E068039BAE
:101D78009842B8BF1846A4E7012332464946404670
:101D8800D04701309BD00135E36803995B1AAB4219
:101D9800F2DCEBE7002504F11906F5E7BD2200089F
:101DA800CE22000838B50023054D044608462B60AE
:101DB800FEF706FD431C02D12B6803B1236038BD32
:101DC8001C01002010B50C46B1F90E1000F0FCF80B
:101DD8000028ABBF636DA3891B1823F48053ACBFE5
:101DE8006365A38110BD2DE9F0411F468B89054627
:101DF800DB050C46164605D502230022B1F90E1064
:101E080000F068F8A389324623F48053A38128465A
:101E18003B46B4F90E10BDE8F04100F017B810B514
:101E28000C46B1F90E1000F055F8431CA38915BFF4
:101E3800606523F4805343F48053A38118BFA381C2
:101E480010BDB1F90E1000F013B8000038B5044603
:101E5800084611460022054D2A601A46FEF7DCFEA8
:101E6800431C02D12B6803B1236038BD1C0100203C
:101E780038B50023054D044608462B60FEF7CAFC1A
:101E8800431C02D12B6803B1236038BD1C0100201C
:101E980038B50023064D0446084611462B60FEF768
:101EA800C1FC431C02D12B6803B1236038BD00BFBD
:101EB8001C01002038B50023054D044608462B6058
:101EC800FEF7B8FC431C02D12B6803B1236038BD70
:101ED8001C01002038B50446084611460022054D6D
:101EE8002A601A46FEF7ADFC431C02D12B6803B1E9
:101EF800236038BD1C010020034610B5C9B2024456
:101F08009342184601D1002003E0047801338C4243
:101F1800F6D110BD0A44914200F1FF3300D1704759
:101F280010B511F8014B914203F8014FF9D110BDDA
:101F3800884210B501EB020402D98442234607D82F
:101F4800431EA14208D011F8012B03F8012FF8E72E
:101F5800014602448A4200D110BD13F8014D02F82F
:101F6800014DF7E70148FFF717BB00BF2401002028
:101F78000148FFF712BB00BF24010020F8B507464F
:101F880014460E4621B91146BDE8F840FFF7BEBB1E
:101F980022B9FFF76FFB25462846F8BD00F026F862
:101FA800A0420FD221463846FFF7B0FB054600286D
:101FB800F2D031462246FFF7ADFF31463846FFF7EB
:101FC80059FBE9E73546E7E738B5044608461146C0
:101FD8000022054D2A601A46FEF73BFC431C02D13D
:101FE8002B6803B1236038BD1C01002051F8043C64
:101FF800181F002BBCBF0B58C01870472E2E2F730C
:10200800797374656D2F7372632F73746D333266D1
:10201800312D7374647065726970682F6D697363AC
:102028002E6300002E2E2F73797374656D2F7372D3
:10203800632F73746D333266312D737464706572F7
:102048006970682F73746D3332663130785F6770EA
:10205800696F2E63000000002E2E2F73797374654C
:102068006D2F7372632F73746D333266312D7374F1
:10207800647065726970682F73746D3332663130BD
:10208800785F7263632E630061626F727428292C13
:102098002065786974696E672E2E2E0061737365EA
:1020A80072745F706172616D2829206661696C6560
:1020B800643A2066696C6520222573222C206C699D
:1020C8006E652025640A0000537461636B20667294
:1020D800616D653A0A000000205230203D2020251D
:1020E8003038580A00000000205231203D202025B9
:1020F8003038580A00000000205232203D202025A8
:102108003038580A00000000205233203D20202596
:102118003038580A0000000020523132203D202576
:102128003038580A00000000204C52203D2020255D
:102138003038580A00000000205043203D20202558
:102148003038580A0000000020505352203D202506
:102158003038580A000000004653522F4641523A80
:102168000A0000002043465352203D2020253038E5
:10217800580A00002048465352203D202025303878
:10218800580A00002044465352203D20202530386C
:10219800580A00002041465352203D20202530385F
:1021A800580A0000204D4D464152203D2025303828
:1021B800580A00002042464152203D202025303850
:1021C800580A00004D6973630A000000204C522F22
:1021D8004558435F52455455524E3D202530385896
:1021E8000A0000005B486172644661756C745D0AA0
:1021F800000000005B4275734661756C745D0A00EF
:102208005B55736167654661756C745D0A00000013
:102218002E2E2F7372632F73746D333266313078BC
:102228005F657874692E6300496E746572727570A3
:10223800C3A7C3A36F204C696E655F300000000020
:102248002400002000000000000000000000000042
:102258000000000000000000000000000000000076
:102268000000000000000000000000000000000066
:102278000000000000000000000000000000000056
:102288000000000000000000000000000000000046
:102298000000000000000000000000000000000036
:1022A80000000000232D302B2000686C4C00656670
:1022B800674546470030313233343536373839418F
:1022C80042434445460030313233343536373839A5
:0722D80061626364656600AA
:1022E000785634129000002000000000000000002A
:1022F00000000000010203040607080900A24A04C6
:1023000024000020000000006C2200088C2200083D
:102310004C22000800000000000000000000000047
:1023200000000000000000000000000000000000AD
:10233000000000000000000000000000000000009D
:10234000000000000000000000000000000000008D
:10235000000000000000000000000000000000007D
:082360000000000032547698E1
:040000050800010DE1
:00000001FF
